:100000000C9435010C945D010C945D010C945D0120
:100010000C945D010C945D010C945D010C945D01E8
:100020000C945D010C945D010C941D0C0C948C0CD3
:100030000C945D010C945D010C945D010C945D01C8
:100040000C945D010C945D010C945D010C945D01B8
:100050000C945D010C945D010C945D010C94D30B28
:100060000C945D010C945D010C945D010C945D0198
:100070000C945D010C945D010C945D010C945D0188
:100080000C945D010C945D010C945D010C945D0178
:100090000C945D010C945D010C945D010C945D0168
:1000A0000C945D010C945D010C945D010763423674
:1000B000B79BD8A71A39685618AEBAAB558C1D3CF9
:1000C000B7CC5763BD6DEDFD753EF6177231BF00BD
:1000D0000000803F08000000BE922449123EABAAF7
:1000E000AA2ABECDCCCC4C3E00000080BEABAAAA52
:1000F000AA3E00000000BF000000803F000000009A
:1001000000084178D3BB4387D1133D190E3CC3BDD2
:100110004282AD2B3E68EC8276BED98FE1A93E4C7F
:1001200080EFFFBE01C4FF7F3F00000000004E4192
:100130004E494E495459494E46CDCCCC3D0AD72361
:100140003C17B7D13877CC2B329595E6241FB14FA9
:100150000A000020410000C84200401C4620BCBEEE
:100160004CCA1B0E5AAEC59D74080B000202020059
:10017000000904000001020200000524001001052E
:10018000240101010424020605240600010705815B
:100190000310004009040100020A000000070502E4
:1001A0000240000007058302400000040309041216
:1001B000010002EF020140412337800001010203E8
:1001C0000141726475696E6F204C4C430066616238
:1001D000656D697400070605040100080A0B0C0D23
:1001E0000900000000240027002A002D0030000034
:1001F000000000250028002B002E00310000000028
:10020000002300260029002C002F0004040404040D
:1002100003040502020202040302020202060606A9
:100220000606060404020202040404080201104047
:10023000804010204080408008020401804020104F
:100240000201108010204040200000000200090F31
:100250000000030401000C0000000000000000008A
:100260000000000000000000F10E11241FBECFEFBF
:10027000DAE0DEBFCDBF12E0A0E0B1E0E6E4FDE3EE
:1002800002C005900D92AE30B107D9F723E0AEE081
:10029000B2E001C01D92AC32B207E1F711E0C5E354
:1002A000D1E004C02197FE010E94731CC433D10722
:1002B000C9F70E94E0100C94A11E0C940000CF928C
:1002C000DF92EF92FF920F931F93CF93DF93D901A9
:1002D000E8016A01F9014217530714F06901FA01B4
:1002E000882309F440C0CB016C157D050CF4C601D0
:1002F0009F018E179F070CF49C01A417B50734F4D7
:10030000CF01821B930B9C012C0D3D1D0D2C000C6D
:10031000EE08FF08032E000C440B550B2C193D0969
:100320004E095F09AEEFBFEF0E9440199F01FF0F1A
:10033000440B550B2C193D094E095F090E942119E8
:10034000DA01C9018F5F9F47A109B10988839983A9
:1003500082E090E0DF91CF911F910F91FF90EF909D
:10036000DF90CF90089590E080E0F4CFFC01809181
:100370004A02882311F13FB7F89482E08093E900A4
:100380002091F200822F90E01816190614F481E0F3
:1003900090E0882339F0289A44E64093490240913E
:1003A000F1004083222339F02091F200211103C093
:1003B0002BE62093E8003FBF08958FEF9FEF08954D
:1003C00081508F3008F047C0E82FF0E0E651FE4F33
:1003D0000C94731C07020B02F901FF0103022B02AC
:1003E0002B022B020E02140218021C0222022B0204
:1003F0002602809180008F778093800008958091FD
:1004000080008F7DF9CF80918000877FF5CF84B504
:100410008F7784BD089584B58F7DFBCF8091900048
:100420008F77809390000895809190008F7DF9CF11
:1004300080919000877FF5CF8091C0008F77809367
:10044000C00008958091C0008F7DF9CF8091C200D7
:10045000877F8093C2000895CF93DF93282F30E0E9
:10046000F901E75BFD4F8491F901E65DFD4FD49101
:10047000F901E55FFD4FC491CC23A1F081110E94E9
:10048000E001EC2FF0E0EE0FFF1FE350FE4FA591CF
:10049000B491EC91ED2381E090E009F480E0DF91EC
:1004A000CF91089580E090E0FACF1F93CF93DF9330
:1004B000282F30E0F901E75BFD4F8491F901E65DFB
:1004C000FD4FD491F901E55FFD4FC491CC23A9F014
:1004D000162F81110E94E001EC2FF0E0EE0FFF1FBC
:1004E000E151FE4FA591B4918FB7F894EC911111A1
:1004F00008C0D095DE23DC938FBFDF91CF911F9191
:100500000895DE2BF8CFCF93DF9390E0FC01E65DFA
:10051000FD4F2491855F9D4FFC0184918823C9F094
:1005200090E0880F991FFC01EF51FE4FA591B49107
:10053000FC01E151FE4FC591D49161110DC09FB7EF
:10054000F8948C91209582238C938881282328838A
:100550009FBFDF91CF910895623051F49FB7F89417
:100560003C91822F809583238C93E8812E2BEFCFB3
:100570008FB7F894EC912E2B2C938FBFEACF82513A
:10058000E82FF0E0EB52FE4FE49190917B008E2F2C
:10059000880F880F80729F7D892B80937B00E77086
:1005A000E064E0937C0080917A00806480937A001C
:1005B00080917A0086FDFCCF80917800909179003F
:1005C00008953FB7F8948091450290914602A0911A
:1005D0004702B091480226B5A89B05C02F3F19F0ED
:1005E0000196A11DB11D3FBFBA2FA92F982F8827B3
:1005F000BC01CD01620F711D811D911D42E0660F8E
:10060000771F881F991F4A95D1F708958F929F925F
:10061000AF92BF92CF92DF92EF92FF926B017C017B
:100620000E94E1024B015C01C114D104E104F10418
:10063000B9F00E94E102681979098A099B09683EAC
:1006400073408105910580F321E0C21AD108E108C9
:10065000F10888EE880E83E0981EA11CB11CE4CF3F
:10066000FF90EF90DF90CF90BF90AF909F908F90D2
:100670000895409135025091360220913302309115
:10068000340242175307B4F49091E8009570E1F3F7
:100690009091E80092FD19C08093F100809135029D
:1006A0009091360201968F739927892B19F48EEF5A
:1006B0008093E800809135029091360201969093E4
:1006C00036028093350281E0089580E00895DF923C
:1006D000EF92FF920F931F93CF93DF93D82E8A014F
:1006E000EB017B01E40EF51ECE15DF0559F0D7FEB8
:1006F00012C0FE0184910E94390321968111F4CF2A
:100700000FEF1FEFC801DF91CF911F910F91FF9065
:10071000EF90DF9008958881EECF2FB7F89487701F
:100720008093E9009091E800892F807295FF04C0C2
:100730009091F20080E4891B2FBF08957F928F92E1
:100740009F92AF92BF92CF92DF92EF92FF920F9360
:100750001F93CF93DF93C82E8B017A0180914A02B9
:10076000811110C08FEF9FEFDF91CF911F910F91FB
:10077000FF90EF90DF90CF90BF90AF909F908F90C1
:100780007F9008958091390280FF05C08091E0003C
:1007900082608093E000CE2DDF2DD12C8AEFB82E21
:1007A0008C2D8770982E8C2D8072882E8C2D8074C5
:1007B000782E9AE3A92E209719F4DD2009F452C06F
:1007C0008C2D0E948D0381110AC0BA94BB2051F276
:1007D00061E070E080E090E00E940603ECCF8C17AF
:1007E0001D0611F00CF08C2F9FB7F8949092E90041
:1007F0002091E80025FD02C09FBFDDCF282F30E00B
:10080000C21BD30B882029F08150A0F01092F10078
:10081000FBCFF801C7FC0AC0815050F041914093D2
:10082000F100FACF44914093F10031968150D0F716
:10083000020F131FDD2021F0A092E800D12CDCCFA5
:100840008091E80085FD07C0A092E800DD24D394E4
:10085000209791F2F3CF209779F6772069F2A09252
:10086000E800CACF5D9A84E680933802C7017CCF46
:10087000615030F02091F100FC0120830196F8CF07
:10088000289A84E680934902089580912B02811171
:100890000DC082E08093270284E0809328021092AA
:1008A0002A021092290281E080932B0287E292E0D3
:1008B00008950F931F93CF93DF931F92CDB7DEB7A9
:1008C00082E0898342E450E069E671E080E80E94BA
:1008D00067030E944504DC0112960D911C910115DD
:1008E000110589F0D801ED91FC910280F381E02D92
:1008F000BE016F5F7F4FC801099597FD04C0F801E5
:1009000000851185ECCF89810F90DF91CF911F91E8
:100910000F910895CF93DF93EC018091120188230A
:1009200031F083E00E949E031816190634F081E02E
:1009300090E09B838A8380E090E0DF91CF910895DF
:10094000CF93DF931F92CDB7DEB76983DC01ED91C2
:10095000FC910280F381E02D41E050E0BE016F5F29
:100960007F4F09950F90DF91CF91089583E0809399
:10097000E9008091F200882319F08AE38093E8006F
:10098000089583E00E948D0390E00895CF93DF9354
:100990001F92CDB7DEB7FC018485958597FD08C011
:1009A0002FEF3FEF358724870F90DF91CF91089588
:1009B000CE0101960E94B601019719F4898190E059
:1009C000F3CF8FEF9FEFF0CF2FB7F89480914B02CA
:1009D00090914C02A0914D02B0914E022FBF809396
:1009E000810290938202A0938302B093840289E7EC
:1009F00092E00E94C60497FF26C02FB7F89480911A
:100A00004B0290914C02A0914D02B0914E022FBF2B
:100A10004091810250918202609183027091840220
:100A2000841B950BA60BB70B40917D0250917E0263
:100A300060917F027091800284179507A607B7071F
:100A4000B0F28FEF9FEF08950F931F93CF93DF9333
:100A50001F92CDB7DEB78C01FC018485958597FF89
:100A60000BC0CE0101960E94B601019771F48981F5
:100A700090E0F80195878487F801848595850F902B
:100A8000DF91CF911F910F9108958FEF9FEFF1CFDD
:100A9000FC018485958597FD0BC09FB7F89482E093
:100AA0008093E9008091F2009FBF90E00196089545
:100AB0009FB7F89482E08093E9008091F2009FBF95
:100AC00090E00895DC01FB0112962C91129784812D
:100AD00095812817190641F491818081813A31F47A
:100AE0009D7F81E0913009F080E008958132E1F747
:100AF0009B3029F482811F968C9381E008959A306F
:100B000099F7828150968C93F8CFDC01FB0188E441
:100B1000808389E4818384E482831D969C911D9760
:100B20009F709F5B93831D968D919C9124E0969579
:100B300087952A95E1F78F708F5B848385E0089510
:100B4000EF92FF920F931F93CF93DF93FB012081CE
:100B5000213889F52381223271F5DC0112964C91FE
:100B6000248135814217130631F58C01FC01C385C0
:100B7000D485F12CE12C209791F04C815D816A8124
:100B80007B818E81811180E80E9467038F3F9807E7
:100B900059F0E80EF91E0990D881C02DECCF81E004
:100BA000D8011F968C93C701DF91CF911F910F91B0
:100BB000FF90EF90089590E080E0F6CFCF93DF9321
:100BC000CDB7DEB769970FB6F894DEBF0FBECDBFC5
:100BD000FC01DB018C918F5F8C939E012D5F3F4F59
:100BE0008DE0D9011D928A95E9F729E0298384E0F7
:100BF0008A8391E09D8383E08E832A8721E22B877D
:100C00009C879D879F8722E2288B27E02B8B25E0FE
:100C10002C8B8E8B20E430E0388F2F8B998F828144
:100C20008B8395858685998B8A8B838180688D8B54
:100C300049E150E0BE016F5F7F4F80E00E94670393
:100C400069960FB6F894DEBF0FBECDBFDF91CF918E
:100C50000895CF93DF9380911F02811167C081E0D7
:100C6000809312028093130228E132E03093150240
:100C70002093140210921702109216022DE131E017
:100C800030930F0220930E0210921A021092190252
:100C900010921C0210921B0280931D0280931E0270
:100CA00081EC809318020E944504FC01818190919F
:100CB0001202482F490F5527551F483051059CF502
:100CC000A281B381109709F52EE032E033832283AD
:100CD0002081209310028093110280911302820FD1
:100CE000808320911402A22FB09115028A2F821BBB
:100CF0008917C8F481813D91C82FD0E0C050DF4FE3
:100D000038838F5F8183F2CFD90118962D913C9162
:100D1000199721153105C1F72EE032E019963C9361
:100D20002E931897D5CF81E080931F028EE092E03A
:100D3000DF91CF91089508954F925F926F927F92C5
:100D40008F929F92AF92BF92CF92DF92EF92FF92DB
:100D50000F931F93CF93DF9300D000D000D0CDB777
:100D6000DEB769837A838B839C8329013A01BE8233
:100D7000AD824E145F046006710609F44CC0470151
:100D8000580184189508A608B708D601A501940152
:100D90000E944B1924E630E040E050E00E94211907
:100DA000420E531E641E751EAD81BE81A5019401C5
:100DB0000E944B192CE93FEF4FEF5FEF0E94211982
:100DC00067017801C20ED31EE41EF51E4C145D04AB
:100DD0006E047F0401F129813A814B815C812419E1
:100DE000350946095709AFEFB3E00E944019A70142
:100DF000960124193509460957090E942119211520
:100E000084E038074105510524F02FEF33E040E03E
:100E100050E057FF03C020E030E0A901CA01B9014A
:100E200026960FB6F894DEBF0FBECDBFDF91CF91EF
:100E30001F910F91FF90EF90DF90CF90BF90AF90F8
:100E40009F908F907F906F905F904F900895FF924A
:100E50000F931F93CF93DF93F82E062FC7E0D0E0B8
:100E600010E061E0802F0E9455028F2D0E942C021D
:100E70000C2E01C0880F0A94EAF7182B60E0802F2F
:100E80000E945502219768F7812FDF91CF911F9122
:100E90000F91FF900895EF92FF920F931F93CF93BE
:100EA000DF9380911C030E942C02892B31F060E0BB
:100EB00070E0CB010E940603F4CFDFB7F894609195
:100EC0001B0380911C030E942707082F60911B03BE
:100ED00080911C030E942707C82F60911B038091FB
:100EE0001C030E942707182FF12CE12C80911D0371
:100EF0008E151F0479F070F061E080911B030E9451
:100F0000550260E080911B030E9455028FEFE81AA2
:100F1000F80AECCFDFBF6C2F70E090E080E0982FF4
:100F2000872F762F6627802B612B000F000B10E098
:100F300030E020E0302F222711270027602B712B73
:100F4000822B932BDF91CF911F910F91FF90EF9008
:100F50000895FF920F931F93CF93DF930FE412E056
:100F6000D0E0C0E0F801F1908F01CE010E940B1992
:100F7000F81621F06F2DCE010E9413192196CA3266
:100F8000D10581F78FE492E0DF91CF911F910F910E
:100F9000FF900895AF92BF92CF92DF92EF92FF92AF
:100FA0000F931F93CF93DF931F92CDB7DEB7ADB6EC
:100FB000BEB6809118032DB73EB7281B31090FB676
:100FC000F8943EBF0FBE2DBF8DB79EB701966C0142
:100FD000E090E702F12C8091E3029091E402D601C7
:100FE000FC019F01281B390B2E153F051CF4219194
:100FF0002D93F7CF8091E802882359F18091DF0289
:101000009091E00228E097FD09C068E671E00E9437
:101010005F1C6DE270E00E945F1C262F8091E10250
:101020009091E20268E097FD08C068E671E00E94D6
:101030005F1C6DE270E00E945F1CF601EE0DFF1D6B
:1010400090E1699FB0011124262B2083F70131968E
:101050007F0186010E0D1F1D2091ED023091EE02E1
:101060004091EB025091EC026091C9027091CA026A
:101070008091E90281700E945F01E80EF91E8601ED
:101080000E0D1F1D2091F1023091F2024091EF02EE
:101090005091F0026091CB027091CC028091E902F4
:1010A000869581700E945F01E80EF91E86010E0D83
:1010B0001F1D2091F5023091F6024091F3025091EC
:1010C000F4026091CD027091CE028091E90282FB20
:1010D000882780F90E945F01E80EF91E86010E0D37
:1010E0001F1D2091F9023091FA024091F7025091B0
:1010F000F8026091CF027091D0028091E90283FBE7
:10110000882780F90E945F01E80EF91E86010E0D06
:101110001F1D2091FD023091FE024091FB02509173
:10112000FC026091D1027091D2028091E902829515
:1011300081700E945F01E80EF91E86010E0D1F1DD1
:1011400020910103309102034091FF02509100036E
:101150006091D3027091D4028091E90285FB8827C7
:1011600080F90E945F01E80EF91E86010E0D1F1D19
:10117000209105033091060340910303509104032D
:101180006091D7027091D8028091EA0281700E942A
:101190005F01E80EF91E86010E0D1F1D2091090347
:1011A00030910A0340910703509108036091D502E2
:1011B0007091D6028091EA02869581700E945F014B
:1011C000E80EF91E86010E0D1F1D20910D033091B2
:1011D0000E0340910B0350910C036091D902709162
:1011E000DA028091EA0282FB882780F90E945F017F
:1011F000E80EF91E86010E0D1F1D2091110330917E
:10120000120340910F03509110036091DB02709123
:10121000DC028091EA0283FB882780F90E945F014B
:101220008E0D9F1D8601080F191F20911503309107
:10123000160340911303509114036091DD027091E5
:10124000DE028091EA02829581700E945F010E9415
:1012500029067C011091180380911703898341E0CE
:1012600050E0BE016F5F7F4FF70183810E949E03B4
:1012700097FD08C0412F50E0F7018381B6018064DB
:101280000E949E030FB6F894BEBE0FBEADBE0F9077
:10129000DF91CF911F910F91FF90EF90DF90CF9052
:1012A000BF90AF900895FC0101900020E9F73197BD
:1012B000AF01481B590BBC0189E792E00C948A04EA
:1012C0008F929F92AF92BF920F931F93CF93DF9312
:1012D000CDB7DEB7A1970FB6F894DEBF0FBECDBF76
:1012E00019A2423008F44AE08E010F5D1F4F842E90
:1012F000912CB12CA12CA50194010E948A19E62FF2
:10130000B901CA01EA30F4F4E05DD801EE938D0131
:10131000232B242B252B79F790E080E0109719F0F0
:10132000CD010E945309A1960FB6F894DEBF0FBEFF
:10133000CDBFDF91CF911F910F91BF90AF909F9044
:101340008F900895E95CE1CFCF92DF92EF92FF9208
:10135000CF93DF9397FF1BC06B017C016DE289E7A0
:1013600092E00E94A004EC0166277727CB016C195C
:101370007D098E099F094AE00E9460098C0F9D1F1C
:10138000DF91CF91FF90EF90DF90CF9008954AE0EA
:10139000DF91CF91FF90EF90DF90CF900C94600998
:1013A000BC01990F880B990B0C94A4094F925F9282
:1013B0006F927F928F929F92AF92BF92CF92DF9265
:1013C000EF92FF920F931F93CF936B017C01742ECA
:1013D000AC019B010E94251B882399F089E691E0CE
:1013E000CF911F910F91FF90EF90DF90CF90BF9022
:1013F000AF909F908F907F906F905F904F900C94E4
:10140000530946015701E894B7F82FEF3FEF4FE734
:101410005FE7C501B4010E94251B81110DC02FEFAC
:101420003FEF4FE75FE7C501B4010E94E4171816CC
:101430001CF48DE691E0D4CF2FEF3FEF4FE75FE450
:10144000C701B6010E94D01A18161CF481E791E07A
:10145000C7CF2FEF3FEF4FE75FECC701B6010E9408
:10146000E41787FDF3CF20E030E0A901C701B60102
:101470000E94E41710E000E087FF0AC06DE289E7F0
:1014800092E00E94A0048C01F7FAF094F7F8F0942F
:10149000C0E060E070E080E09FE37C1641F020E077
:1014A00030E040E251E40E94281ACF5FF6CFA70156
:1014B00096010E94BC192B013C010E94A11A4B010C
:1014C0005C014AE00E9460097C01E00EF11ECC2321
:1014D000C1F1C501B4010E94E9179B01AC01C30130
:1014E000B2010E94BB194B015C016EE289E792E0F8
:1014F0000E94A004E80EF91EC15018F120E030E06F
:1015000040E251E4C501B4010E944A182B013C019C
:101510000E94A11A4B01B12CA12C4AE0C501B401D3
:101520000E946009E80EF91EC501B4010E94E91786
:101530009B01AC01C301B2010E94BB194B015C01CC
:10154000DBCFC701CF911F910F91FF90EF90DF90FC
:10155000CF90BF90AF909F908F907F906F905F9053
:101560004F9008950C945309FC018081918100975C
:1015700011F00C94291D08950C94291DFC0124815F
:101580003581232B39F421E0FB018081882349F048
:1015900020E007C0808191810E94831E21E0892B79
:1015A000B9F7822F08950F931F93CF93DF93EC0128
:1015B00088819981009759F02A813B812617370746
:1015C00030F081E0DF91CF911F910F9108958B0151
:1015D0006F5F7F4F0E94B21D009759F099838883F7
:1015E0001B830A832C813D81232B59F7FC01108238
:1015F000E8CF80E0E7CFEF92FF920F931F93CF9356
:10160000DF93EC017B018A01BA010E94D30A288191
:101610003981811114C02115310519F0C9010E94C9
:10162000291D198218821D821C821B821A82CE01FA
:10163000DF91CF911F910F91FF90EF9008951D833F
:101640000C83B701C9010E948C1EF1CFFB010190F0
:101650000020E9F73197AF01461B570B0C94FB0AAA
:10166000AF92BF92CF92DF92EF92FF920F931F93B0
:10167000CF93DF93EC016B015A01790124173507F1
:1016800020F48B2D5901E42EF82E198218821B822A
:101690001A821D821C8262E871E0CE010E94260B34
:1016A000D60114960D911C91A016B10628F5E016EE
:1016B000F10608F48701D601ED91FC911197E00F36
:1016C000F11FF08010826D917C916A0D7B1D611578
:1016D0007105F1F0FB0101900020E9F73197AF01AE
:1016E000461B570BCE010E94FB0AF60180819181B7
:1016F000080F191FD801FC92CE01DF91CF911F91E5
:101700000F91FF90EF90DF90CF90BF90AF90089532
:1017100088819981009711F00E94291D19821882F1
:101720001D821C821B821A82E0CFCF92DF92EF9241
:10173000FF92CF93DF93EC016A017B012DEC3CEC2F
:101740004CEC5DE3CB01B6010E94E41787FD23C09A
:1017500020E030E040E85FE3C701B6010E94E417F3
:101760008823C9F0BE01DD0F880B990B0E94EB178F
:1017700020E030EC4FE754E40E94281AA7019601BC
:101780000E94D51A20E030EC4FE754E40E944A183A
:101790000E949A1AEB01CE01DF91CF91FF90EF905A
:1017A000DF90CF9008951F920F920FB60F921124E1
:1017B0002F933F938F939F93AF93BF9380914B024F
:1017C00090914C02A0914D02B0914E023091440292
:1017D00023E0230F2D3758F50196A11DB11D20934D
:1017E000440280934B0290934C02A0934D02B0931D
:1017F0004E028091450290914602A0914702B0911D
:1018000048020196A11DB11D8093450290934602A6
:10181000A0934702B0934802BF91AF919F918F91DF
:101820003F912F910F900FBE0F901F90189526E8B3
:10183000230F0296A11DB11DD2CF1F920F920FB69A
:101840000F9211248F939F938091E1009091E1007A
:10185000937F9093E10083FF0FC01092E90091E025
:101860009093EB001092EC0092E39093ED001092B5
:101870004A0298E09093F00082FF22C093E0909398
:10188000E9009091F200992319F09AE39093E8000F
:1018900090913802992341F09091380291509093A1
:1018A0003802911101C05D9890914902992341F04D
:1018B00090914902915090934902911101C028984A
:1018C00084FF18C08091E2008E7E81608093E200E8
:1018D0008091E1008F7E8093E100809139028E7EBD
:1018E0008061809339029F918F910F900FBE0F906E
:1018F0001F90189580FFF7CF8091E2008E7E806167
:101900008093E2008091E1008E7E8093E1008091DF
:1019100039028E7E8160E5CF1F920F920FB60F9233
:101920001124CF92DF92EF92FF920F931F932F9388
:101930003F934F935F936F937F938F939F93AF9357
:10194000BF93EF93FF93CF93DF93CDB7DEB76C9741
:10195000DEBFCDBF1092E9008091E80083FF25C073
:1019600068E0CE0145960E94380482EF8093E8003B
:101970008D8987FF39C09091E80090FFFCCF982FA8
:10198000907609F034C19E894F89588D2F89F88C43
:10199000911131C0803861F580913A028093F10055
:1019A0001092F1008EEF8093E8006C960FB6F894D9
:1019B000DEBF0FBECDBFDF91CF91FF91EF91BF9101
:1019C000AF919F918F917F916F915F914F913F91D7
:1019D0002F911F910F91FF90EF90DF90CF900F907C
:1019E0000FBE0F901F9018959EEF9093E800C7CF01
:1019F0001092F100D5CF913059F48111D3CF4130FD
:101A0000510581F680913A028D7F80933A02CACFC8
:101A1000933049F48111C6CF4130510519F68091B8
:101A20003A028260F2CF953041F48091E80080FF65
:101A3000FCCF20682093E300B5CF963009F0A9C011
:101A40000B8D1C8D22E01092E9001092360210924C
:101A50003502F2122EC010923402109233020E940C
:101A600059041F8299E09983FA8291E09E8390EA5B
:101A700098879AEF99872091350230913602275F37
:101A80003F4F3C832B838D831092E90010923602E6
:101A900010923502109334020093330249E050E073
:101AA000BE016F5F7F4F80E00E9467030E94590470
:101AB00079CF10933402009333020E944504DC0175
:101AC00012960D911C910115110509F451C1D8010F
:101AD000ED91FC910480F581E02DBE016B5E7F4F9E
:101AE000C8010995009709F03EC1F80100851185EC
:101AF000EACFF3E0FF120EC08F89882309F440C0BB
:101B0000823061F440E867E08DEC91E00E94BE0E07
:101B1000811148CF81E28093EB0047CF813029F4D7
:101B200040E86BE081EC91E0F1CF833099F70E94BF
:101B30004504DC011296ED90FC908E010F5F1F4F63
:101B40006801E114F10479F0D701ED91FC91068070
:101B5000F781E02DB801C7010995080F111DF701A4
:101B6000E084F184EECFD8011C92F60101900020B0
:101B7000E9F73197BF016C197D0940E0C601C6CF76
:101B80006BEA71E0FB01449150E080E80E9467033A
:101B900009CF973009F4BECF983021F481E08093CB
:101BA000F10000CF993009F0FDCE837009F0B2CF7B
:101BB000E1E0F1E081E031E096E32191222371F050
:101BC0008093E9003093EB00DF0111972C91209373
:101BD000EC009093ED008F5F873079F78EE780936C
:101BE000EA001092EA008F8980934A02DBCE8B8D47
:101BF0009C8D1092E900109236021092350290935B
:101C0000340280933302898D811192C08E899D891F
:101C1000913A49F4813209F07DCF47E050E06BE022
:101C200071E080E0B3CF913209F074CF833269F470
:101C30008F89988DB0E0A0E0809307019093080110
:101C4000A0930901B0930A01ADCE803269F480916E
:101C5000E80082FFFCCF67E08BE091E00E9438044F
:101C60008BEF8093E8009ECE823209F09BCE8F8965
:101C700080931201EEEFFFE7859194918B3F9C4D8D
:101C800051F1E0E0F8E080910B0190910C01A091FE
:101C90000D01B0910E01803B9440A105B105F1F416
:101CA0008091120180FD1AC0EE3F8AE0F80789F5A5
:101CB00087E797E791838083809160008093370264
:101CC00088E19BE00FB6F894A895809360000FBE62
:101CD0009093600067CEEEEFFAE0D5CF80819181DE
:101CE0008737974709F05ECEA8958091600088619C
:101CF000809360008091370280936000EE3F2AE07D
:101D0000F20789F08091FE0A9091FF0A9183808307
:101D100049CE808191818737980751F29093FF0ACD
:101D20008093FE0AC5CF1092FF0A1092FE0A3ACEA7
:101D30000E944504DC0112960D911C9101151105BC
:101D400009F4E8CED801ED91FC910190F081E02DED
:101D5000BE016B5E7F4FC8010995811123CEF8014A
:101D600000851185EBCF181619060CF41BCED2CEC8
:101D7000F1E0FF12BECE6FEA71E004CFEF92FF9266
:101D80000F931F93CF93DF93F82E192FE62E042F76
:101D900081E0860F880F0E94390383E00E94390397
:101DA000CF2DD12FEC0EFD2EF11CCE15DF05B9F095
:101DB00007FF13C0FE0184910E943903182F80E0B1
:101DC0000E943903812321968111EFCFDF91CF91BA
:101DD0001F910F91FF90EF9008958881EDCF81E0E2
:101DE000F5CFEF92FF920F931F93CF93DF93CDB771
:101DF000DEB7C659D1090FB6F894DEBF0FBECDBF0E
:101E000010927C0210927B0288EE93E0A0E0B0E09A
:101E100080937D0290937E02A0937F02B093800214
:101E200083E591E090937A02809379028FEF9FEFA0
:101E3000909386028093850285E691E090931A0341
:101E40008093190310921E0310921F031092200317
:101E50001092210380E090E0A0E8BFE3809322038A
:101E600090932303A0932403B09325031092E402DC
:101E70001092E3021092E7021092EC021092EB0231
:101E80008FEF93E09093EE028093ED021092F002B8
:101E90001092EF029093F2028093F1021092F402FA
:101EA0001092F3029093F6028093F5021092F802DA
:101EB0001092F7029093FA028093F9021092FC02BA
:101EC0001092FB029093FE028093FD021092000399
:101ED0001092FF0290930203809301031092040377
:101EE0001092030390930603809305031092080356
:101EF0001092070390930A038093090310920C0336
:101F000010920B0390930E0380930D031092100315
:101F100010920F03909312038093110310921403F5
:101F200010921303909316038093150344E040939B
:101F3000170392E09093E6021092E8024093E902C0
:101F40008AE08093EA0235E0398381E08A8329E0E0
:101F50002B833C83E1EAED838E8355E85F834887DA
:101F600039872A8749E14B878C8749E24D879E87CD
:101F700045E14F87188A45E2498B8A8B65E76B8B71
:101F80008C8B55E95D8B9E8B45E54F8B188E45E616
:101F9000498F1A8E41E84B8F9C8F6D8F8E8F5F8F8C
:101FA00076E078A349A373E07AA33BA38CA32DA387
:101FB0008EA376E1F72EFFA288A700E809A716E214
:101FC0001AA7BFEFBBA7AFE7ACA76DA7F0E1FEA7CD
:101FD0005FA788ABE9AB1AAA2BAB72E37CAB4DAB26
:101FE0009EAB70EC7FAB38AF99AFFAAE8BAF0CAF56
:101FF0001DAFBEAFAFAF21966FAF21972296FFAF57
:10200000229723965FAF239724969FAF2497259618
:10201000EFAF259726961FAE269727962FAF2797C7
:102020008BEB28968FAF289729962FAF299785ECB1
:102030002A968FAF2A972B964FAF2B972C969FAF50
:102040002C972D967FAF2D972E967FAF2E978DE4F0
:1020500090E00E948D1C7C018DE4FE013196D70139
:1020600001900D928A95E1F787E090E00E948D1C27
:102070008C01DC0111961C921E921396FC92EE923A
:1020800012978DE490E015969C938E931497169674
:102090001C920E942906FC01A385B485109709F0C3
:1020A00077C01487038785859685D80114962D916E
:1020B0003C91820F931F968785879091E602892F26
:1020C000869586958695977009F06AC08093E70299
:1020D0001091E702812F90E0009711F481E090E0E9
:1020E0000E948D1C9093E4028093E30281E0909122
:1020F000E802911101C080E01A5F810F80931803FC
:102100001092CA021092C9021092CC021092CB0215
:102110001092CE021092CD021092D0021092CF02F5
:102120001092D2021092D1021092D4021092D302D5
:102130001092D6021092D5021092D8021092D702B5
:102140001092DA021092D9021092DC021092DB0295
:102150001092DE021092DD028FEF9FEF9093E0026B
:102160008093DF029093E2028093E10290E080E0AE
:102170002091E70228171906A9F0A4F0E091E302E4
:10218000F091E402E80FF91F10820196F1CFDC0113
:102190008D919C9111970097D1F70D931C9383CF4C
:1021A0008F5F94CFCA56DF4F0FB6F894DEBF0FBED5
:1021B000CDBFDF91CF911F910F91FF90EF900895C8
:1021C000CF93DF93CDB7DEB76C970FB6F894DEBF31
:1021D0000FBECDBF789484B5826084BD84B5816024
:1021E00084BD85B5826085BD85B5816085BD8091E2
:1021F0006E00816080936E0010928100809181005A
:102200008260809381008091810081608093810051
:102210008091800081608093800080919100826035
:1022200080939100809191008160809391008091D2
:1022300090008160809390008091C10084608093C1
:10224000C1008091C10082608093C1008091C10073
:1022500081608093C1008091C30081608093C3003E
:102260008091C00082608093C0008091C200816034
:102270008093C20080917A00846080937A0080917C
:102280007A00826080937A0080917A0081608093E6
:102290007A0080917A00806880937A0010924A02D6
:1022A00010923A02109239028091D7008160809397
:1022B000D70080EA8093D80089B5806189BD89B54F
:1022C000826089BD09B400FEFDCF61E070E080E06E
:1022D00090E00E9406038091D8008F7C80618093FB
:1022E000D8008091E000807F8093E0008091E10041
:1022F0008E7E8093E1008DE08093E200559A209AD3
:102300005D9828988FEF9FEF9093860280938502C7
:1023100060E082E10E94830260E083E10E94830228
:1023200062E088E00E94830262E089E00E9483020A
:1023300061E08DE00E9483029FE4E92E92E0F92E95
:1023400010E000E0C8010E940B19F70181937F01A2
:102350000F5F1F4F0A321105A9F780914F0290912C
:10236000500289369A4E01F52DEC3CEC4CEC5DE3C5
:1023700060916D0270916E0280916F029091700277
:102380000E94E41787FD10C02DEC3CEC4CEC5DE3A3
:102390006091750270917602809177029091780237
:1023A0000E94E41787FF0BC08AE2E5E2F1E0AFE4A8
:1023B000B2E001900D928A95E1F70E94A90785E0AD
:1023C00080931B0384E080931C0361E085E00E94FE
:1023D000830260E080911C030E94830281E080936D
:1023E0001D0380E090E0A0E8BFE380932203909378
:1023F0002303A0932403B093250364E670E080E0F8
:1024000090E00E9406031AE0C12CD12C76010E94B4
:102410004B07C60ED71EE81EF91E60E070E0CB0128
:102420000E940603115099F7C701B6012AE030E077
:1024300040E050E00E942119CA01B9010E94EB1747
:102440000E949A1A60931E0370931F0380932003C7
:102450009093210310920803109207038FEF93E0EB
:1024600090930A03809309031092100310920F03B4
:1024700090931203809311031092F4021092F302CE
:102480009093F6028093F5021092E5020E94CA072B
:1024900089E792E00E944805181619060CF00DC154
:1024A0001C8A1B8A1E8A1D8A188E1F8A62E871E0A8
:1024B000CE0143960E94260B0E94E40497FD1EC0A5
:1024C0008A309105D9F089831A820F89188D0F5FA0
:1024D0001F4FB801CE0143960E94D30A882361F3AF
:1024E0002B893C898F89988DBE016F5F7F4F820F4A
:1024F000931F0E948C1E188F0F8BDECF1E861D86A9
:10250000188A1F861A8A198A6B897C896115710558
:1025100031F04F89588DCE010D960E94FB0ACD8473
:10252000DE84C114D10439F009891A8976010115B4
:10253000110509F0F4C165E771E0CE010D960E9426
:10254000BE0A882309F421C28AE791E00E94B20AF8
:1025500080915102909152020E94D0098BE092E04A
:102560000E94B20A80915302909154020E94D009B5
:102570008BE092E00E94B20A80915502909156023F
:102580000E94D0098BE092E00E94B20A809157022B
:10259000909158020E94D0098BE092E00E94B20A0A
:1025A0006091590270915A0280915B0290915C0295
:1025B0000E94A4098BE092E00E94B20A60915D0241
:1025C00070915E0280915F02909160020E94A40966
:1025D0008BE092E00E94B20A8091610290916202C7
:1025E0000E94D0098BE092E00E94B20A80916302BF
:1025F000909164020E94D0098BE092E00E94B20A9E
:1026000080916502909166020E94D0098BE092E071
:102610000E94B20A80916702909168020E94D009DC
:102620008BE092E00E94B20A8091690290916A0266
:102630000E94D0098BE092E00E94B20A80916B0266
:1026400090916C020E94D0098BE092E00E94B20A45
:1026500060916D0270916E0280916F029091700294
:1026600042E00E94D6098BE092E00E94B20A60919B
:10267000710270917202809173029091740242E033
:102680000E94D6098BE092E00E94B20A6091750226
:1026900070917602809177029091780242E00E94D8
:1026A000D60980E891E00E945309CE010D960E9460
:1026B000B40ACE0143960E94B40A82E10E94BF028E
:1026C0004C0183E10E94BF021C0180911C030E9407
:1026D0002C02892B51F40E944B07609340027093A7
:1026E00041028093420290934302A0906302B09013
:1026F0006402C0906102D0906202E0905302F090B8
:1027000054020F2C000C000B110B20915102309140
:102710005202032E000C440B550BB401092C000C83
:10272000880B990B0E949C06698F7A8F8B8F9C8FE8
:10273000A0906702B0906802C0906502D0906602D7
:10274000E0905702F09058020F2C000C000B110B78
:102750002091550230915602032E000C440B550B6C
:10276000B101032C000C880B990B0E949C062B01D5
:10277000A0906B02B0906C02C0906902D0906A0287
:10278000E0905D02F0905E0200915F0210916002A5
:102790002091590230915A0240915B0250915C02A3
:1027A00060914002709141028091420290914302F7
:1027B0000E949C066B0140916D0250916E026091E7
:1027C0006F0270917002898D9A8D0E94950B8C0119
:1027D0004091710250917202609173027091740283
:1027E000C2010E94950B5C014091750250917602E6
:1027F0006091770270917802C6010E94950B7C016E
:102800001093D6020093D5028091E50281110E94B7
:10281000CA07B092CE02A092CD028091E50281114A
:102820000E94CA07F092DC02E092DB028091E5028E
:1028300081110E94CA070E94CA0780913F02882323
:1028400009F464C02FB7F89480914B0290914C0228
:10285000A0914D02B0914E022FBF40913B0250918A
:102860003C0260913D0270913E02841B950BA60BC9
:10287000B70BC397A105B10508F448C087E092E003
:102880000E94B20AC4010E94D0098BE092E00E942B
:10289000B20AC8010E94D0098BE092E00E94B20AFD
:1028A000C1010E94D0098BE092E00E94B20AC501EA
:1028B0000E94D0098BE092E00E94B20A609140022F
:1028C0007091410280914202909143020E94A409BA
:1028D0008BE092E00E94B20AC7010E94D00980E812
:1028E00091E00E9453092FB7F89480914B02909188
:1028F0004C02A0914D02B0914E022FBF80933B023B
:1029000090933C02A0933D02B0933E0220E030E061
:10291000232B09F4BDCD0E940000BACD75015701EB
:102920002FEFA21AB20AF7018081082E000C990B32
:102930000E94C317892B91F7015011090C0D1D1D21
:10294000F8018081082E000C990B0E94C317892B77
:1029500031F00E151F0518F001501109F1CFA80133
:102960004F5F5F4F4E195F095A8B498BCE14DF04BE
:1029700020F4B701C6010E946F1EED85FE8589898E
:102980009A89E80FF91F1082D6CD63E871E0CE0175
:102990000D960E94BE0A882339F00E94A90788E894
:1029A00091E00E9453097DCE61E971E0CE010D9660
:1029B0000E94BE0A882321F0F1E0F0933F0275CE19
:1029C0006AE971E0CE010D960E94BE0A182F882395
:1029D00019F010923F0269CE1A8219821C821B8262
:1029E0001E821D8264EA71E0CE0101960E94260BD0
:1029F0004D815E8189899A898417950778F08D8544
:102A00009E85009759F069817A816115710531F0D1
:102A10000E94931E11E0892B09F010E0CE0101966F
:102A20000E94B40A112309F440CEE988FA88E1141F
:102A3000F10409F44DC10D851E856AE370E0C801FB
:102A40000E94781E009709F443C19C01201B310BA2
:102A500089010F5F1F4F0E151F0508F03CC1ED8463
:102A6000FE846AE370E0C701800F911F0E94781E08
:102A7000009709F430C1FC01EE19FF097F019701AD
:102A8000A801BE01635F7F4FCE0107960E94300B05
:102A900029893A89A7014F5F5F4FBE01635F7F4F6E
:102AA000CE0101960E94300B89819A81C12CD12CD4
:102AB0007601009721F00E946F166B017C01CE0118
:102AC00001960E94B40A69EA71E0CE0107960E945D
:102AD000BE0A882341F0C701B6010E949A1A70937A
:102AE0005202609351026EEA71E0CE0107960E9495
:102AF000BE0A882341F0C701B6010E949A1A70935A
:102B000054026093530263EB71E0CE0107960E947A
:102B1000BE0A882341F0C701B6010E949A1A709339
:102B200056026093550268EB71E0CE0107960E9451
:102B3000BE0A882341F0C701B6010E949A1A709319
:102B40005802609357026DEB71E0CE0107960E9428
:102B5000BE0A882361F0C701B6010E949A1A6093E9
:102B6000590270935A0280935B0290935C0262EC6C
:102B700071E0CE0107960E94BE0A882361F0C7016A
:102B8000B6010E949A1A60935D0270935E02809370
:102B90005F029093600267EC71E0CE0107960E949D
:102BA000BE0A882341F0C701B6010E949A1A7093A9
:102BB0006202609361026EEC71E0CE0107960E94A2
:102BC000BE0A882341F0C701B6010E949A1A709389
:102BD00064026093630265ED71E0CE0107960E9486
:102BE000BE0A882341F0C701B6010E949A1A709369
:102BF0006602609365026CED71E0CE0107960E945B
:102C0000BE0A882341F0C701B6010E949A1A709348
:102C100068026093670263EE71E0CE0107960E943E
:102C2000BE0A882341F0C701B6010E949A1A709328
:102C30006A02609369026AEE71E0CE0107960E9413
:102C4000BE0A882341F0C701B6010E949A1A709308
:102C50006C0260936B0261EF71E0CE0107960E94F7
:102C6000BE0A882341F0C0926D02D0926E02E092BB
:102C70006F02F092700266EF71E0CE0107960E943B
:102C8000BE0A882341F0C0927102D0927202E09293
:102C90007302F09274026BEF71E0CE0107960E940E
:102CA000BE0A882341F0C0927502D0927602E0926B
:102CB0007702F092780280E092E00E94530980E867
:102CC00091E00E945309CE0107960E94B40AEDCC10
:102CD0000FEF1FEFBECEEE24EA94FE2CD0CE662777
:102CE00077270C947316B0E0A0E0E9E7F6E10C94C6
:102CF00059195C017B016115710519F0DB018D9398
:102D00009C9385010F5F1F4FF501D0818D2F90E0BF
:102D10000E94C3176C01892BB9F5DD32B9F50F5F3D
:102D20001F4FD5011196DC91C1E05801F1E0AF1AB7
:102D3000B10843E050E066E371E0C5010E94CC17A2
:102D4000892B69F5680182E0C80ED11C45E050E08E
:102D500061E371E0C6010E94CC17892B21F4680160
:102D600097E0C90ED11CE114F10419F0D701CD92FE
:102D7000DC9260E070E080E89FEFC111FFC060E08E
:102D800070E080E89FE7FAC05801BBCFDB3229F43E
:102D900085010E5F1F4FF501D181C0E0C6CF43E032
:102DA00050E06EE271E0C5010E94CC17892BE9F07A
:102DB000F80110E000E020E030E0A9015F01B0ED93
:102DC0008B2E8D0E89E08815C8F19C2E689491F8A1
:102DD0008C2F8870C2FF16C0811102C00F5F1F4F79
:102DE0003196D501DC91C92DE9CFE114F10429F028
:102DF0000E5F1F4FF7011183008360E070E080ECED
:102E00009FE7BCC0882311F001501109A5E0B0E094
:102E10000E9440199B01AC01220F331F441F551F14
:102E2000280D311D411D511D283999E939074907E0
:102E300099E15907A8F2C6609C2ED2CFAEEF8A1254
:102E400006C0C3FD3CC09C2E689493F8C9CFDF7DBB
:102E5000D534A9F580818D3239F4C061DF01129635
:102E6000818162E070E006C0DF018B32C1F3119610
:102E700061E070E080535D01A61AB70A8A30F8F469
:102E8000E0E8CE16ECE0DE065CF4B601660F771FD4
:102E9000660F771FC60ED71ECC0CDD1CC80ED11CCA
:102EA0005D01FFEFAF1ABF0A8C9180538A30A8F101
:102EB000C4FF03C0D194C194D1080C0D1D1DC1FFE6
:102EC00009C0E114F10431F081E0A81AB108D7017A
:102ED000AD92BC92CA01B9010E94E917C370C33018
:102EE00009F490584B015C0120E030E0A9010E94F8
:102EF000E417882309F440C0C5E6D1E017FF05C0F8
:102F0000119501951109CDE4D1E06E01B8E1CB1A1C
:102F1000D10880E2E82EF12C0FC0D501B1CFFE011F
:102F200025913591459154910E191F09C501B401A0
:102F30000E944A184B015C01D501C4010E151F0502
:102F400074F72497F594E794CC16DD06A9F78A2F39
:102F5000880F8B2F881F8F3F49F020E030E0A901B8
:102F6000C501B4010E94E417811106C082E290E01D
:102F70009093270380932603C501B401CDB7DEB734
:102F8000ECE00C94751991110C94B718803219F07B
:102F900089508550C8F70895FB01DC01415050402D
:102FA00088F08D9181341CF08B350CF4805E659136
:102FB00061341CF06B350CF4605E861B611171F39B
:102FC000990B0895881BFCCF0E94261808F481E015
:102FD0000895E89409C097FB3EF49095809570950C
:102FE00061957F4F8F4F9F4F9923A9F0F92F96E955
:102FF000BB279395F695879577956795B795F111CA
:10300000F8CFFAF4BB0F11F460FF1BC06F5F7F4F66
:103010008F4F9F4F16C0882311F096E911C0772378
:1030200021F09EE8872F762F05C0662371F096E881
:10303000862F70E060E02AF09A95660F771F881F50
:10304000DAF7880F9695879597F90895990F0008F4
:10305000550FAA0BE0E8FEEF16161706E807F9076A
:10306000C0F012161306E407F50798F0621B730B05
:10307000840B950B39F40A2661F0232B242B252B86
:1030800021F408950A2609F4A140A6958FEF811D29
:10309000811D08950E945D180C94D1180E94C318D8
:1030A00038F00E94CA1820F0952311F00C94BA1839
:1030B0000C94C01811240C9405190E94E21870F3A6
:1030C000959FC1F3950F50E0551F629FF001729FCD
:1030D000BB27F00DB11D639FAA27F00DB11DAA1FDC
:1030E000649F6627B00DA11D661F829F2227B00D29
:1030F000A11D621F739FB00DA11D621F839FA00DB4
:10310000611D221F749F3327A00D611D231F849F03
:10311000600D211D822F762F6A2F11249F5750405A
:103120009AF0F1F088234AF0EE0FFF1FBB1F661FD5
:10313000771F881F91505040A9F79E3F510580F09E
:103140000C94BA180C9405195F3FE4F3983ED4F33D
:10315000869577956795B795F795E7959F5FC1F742
:10316000FE2B880F911D9695879597F908959927BD
:103170008827089597F99F6780E870E060E00895D8
:103180009FEF80EC089500240A941616170618067F
:103190000906089500240A9412161306140605065B
:1031A0000895092E0394000C11F4882352F0BB0FEC
:1031B00040F4BF2B11F460FF04C06F5F7F4F8F4F4F
:1031C0009F4F089557FD9058440F551F59F05F3F8A
:1031D00071F04795880F97FB991F61F09F3F79F039
:1031E00087950895121613061406551FF2CF4695BB
:1031F000F1DF08C0161617061806991FF1CF86953D
:103200007105610508940895E894BB276627772720
:10321000CB0197F90895F999FECF92BD81BDF89A37
:10322000992780B50895262FF999FECF1FBA92BD30
:1032300081BD20BD0FB6F894FA9AF99A0FBE019697
:103240000895052E97FB1EF400940E94381957FD2F
:1032500007D00E948A1907FC03D04EF40C94381949
:1032600050954095309521953F4F4F4F5F4F0895B2
:1032700090958095709561957F4F8F4F9F4F0895E2
:103280000E94AC19A59F900DB49F900DA49F800D36
:10329000911D11240895B7FF0C9440190E94401904
:1032A000821B930B08952F923F924F925F926F92E1
:1032B0007F928F929F92AF92BF92CF92DF92EF92C6
:1032C000FF920F931F93CF93DF93CDB7DEB7CA1B47
:1032D000DB0B0FB6F894DEBF0FBECDBF09942A8872
:1032E000398848885F846E847D848C849B84AA841A
:1032F000B984C884DF80EE80FD800C811B81AA81A7
:10330000B981CE0FD11D0FB6F894DEBF0FBECDBF71
:10331000ED010895A1E21A2EAA1BBB1BFD010DC0F1
:10332000AA1FBB1FEE1FFF1FA217B307E407F50775
:1033300020F0A21BB30BE40BF50B661F771F881F51
:10334000991F1A9469F760957095809590959B01E7
:10335000AC01BD01CF010895A29FB001B39FC00190
:10336000A39F700D811D1124911DB29F700D811DB1
:103370001124911D08955058BB27AA270E94D319E4
:103380000C94D1180E94C31838F00E94CA1820F07B
:1033900039F49F3F19F426F40C94C0180EF4E0950C
:1033A000E7FB0C94BA18E92F0E94E21858F3BA17F9
:1033B000620773078407950720F079F4A6F50C944B
:1033C00004190EF4E0950B2EBA2FA02D0B01B901B4
:1033D00090010C01CA01A0011124FF27591B99F08B
:1033E000593F50F4503E68F11A16F040A22F232F97
:1033F000342F4427585FF3CF469537952795A795E7
:10340000F0405395C9F77EF41F16BA0B620B730B8D
:10341000840BBAF09150A1F0FF0FBB1F661F771FFE
:10342000881FC2F70EC0BA0F621F731F841F48F4B3
:10343000879577956795B795F7959E3F08F0B0CF3C
:103440009395880F08F09927EE0F97958795089523
:103450000E943C1A0C94D1180E94CA1858F00E947D
:10346000C31840F029F45F3F29F00C94BA185111A9
:103470000C9405190C94C0180E94E21868F3992363
:10348000B1F3552391F3951B550BBB27AA27621760
:103490007307840738F09F5F5F4F220F331F441F6D
:1034A000AA1FA9F335D00E2E3AF0E0E832D09150A1
:1034B0005040E695001CCAF72BD0FE2F29D0660F8E
:1034C000771F881FBB1F261737074807AB07B0E8D1
:1034D00009F0BB0B802DBF01FF2793585F4F3AF0D7
:1034E0009E3F510578F00C94BA180C9405195F3F73
:1034F000E4F3983ED4F3869577956795B795F7955D
:103500009F5FC9F7880F911D9695879597F9089544
:10351000E1E0660F771F881FBB1F621773078407E0
:10352000BA0720F0621B730B840BBA0BEE1F88F7EF
:10353000E09508950E94A11A6894B1110C940519A0
:1035400008950E94EA1888F09F5798F0B92F99279C
:10355000B751B0F0E1F0660F771F881F991F1AF07E
:10356000BA95C9F714C0B13091F00E940419B1E0C6
:1035700008950C940419672F782F8827B85F39F0C5
:10358000B93FCCF3869577956795B395D9F73EF417
:1035900090958095709561957F4F8F4F9F4F0895BF
:1035A0000E94261808F48FEF0895FA01EE0FFF1F0E
:1035B000309621053105A1F16115710561F480385E
:1035C000BFE39B0749F168949038810561F080382A
:1035D000BFEF9B0741F099234AF5FF3FE105310515
:1035E000210519F1E8940894E795D901AA2329F453
:1035F000AB2FBE2FF85FD0F310C0FF5F70F4A6951D
:10360000E0F7F73950F019F0FF3A38F49F779F93BD
:103610000DD00F9007FC9058089546F00C94C018F8
:1036200060E070E080E89FE308954FE79F775F9345
:103630004F933F932F930E94D51B2F913F914F9112
:103640005F910E944A180C94321B0E942618880B26
:10365000990B089529F416F00C94BA180C940419D7
:103660000C94C0180E94EA18A8F39638A0F707F83F
:103670000F92E8942BE33AEA48EB5FE70E94601868
:103680000F920F920F924DB75EB70F920E941D1CC2
:10369000ECEAF0E00E94641B4F915F91EF91FF9183
:1036A000E595EE1FFF1F49F0FE57E0684427EE0F37
:1036B000441FFA95E1F74195550B0E94971B0F9017
:1036C00007FE0C948B1B0895DF93CF931F930F93EA
:1036D000FF92EF92DF927B018C01689406C0DA2E94
:1036E000EF010E945D18FE01E894A59125913591A6
:1036F00045915591A6F3EF010E94D319FE01970160
:10370000A801DA9469F7DF90EF90FF900F911F9175
:10371000CF91DF9108959B01AC0160E070E080E8FB
:103720009FE30C94281A0C94BA180C94511C0E9414
:10373000EA18D8F39923C9F3940F511DA3F39150BC
:10374000504094F059F0882332F0660F771F881F9D
:1037500091505040C1F79E3F51052CF7880F911DA5
:103760009695879597F908955F3FACF0983E9CF049
:10377000BB27869577956795B79508F4B1609395C3
:10378000C1F7BB0F58F711F460FFE8CF6F5F7F4FB1
:103790008F4F9F4FE3CF0C94051916F00C94511CDA
:1037A0000C94C01868940C94BA180E94EA18A8F3F4
:1037B0009923C1F3AEF3DF93CF931F930F93FF923F
:1037C000C92FDD2788232AF02197660F771F881FCE
:1037D000DAF720E030E040E85FEB9FE3883920F043
:1037E000803E38F021968F770E94BC19E4EDF0E01E
:1037F00004C00E94BC19E1E0F1E00E94641B8B014F
:10380000BE01EC01FB2E6F5771097595771F880B70
:10381000990B0E94EB1728E132E741E35FE30E9436
:103820005D18AF2D9801AE01FF900F911F91CF91C0
:10383000DF910E94D3190C94D118FA01DC01AA0F70
:10384000BB1F9B01AC01BF5728F422273327442715
:10385000507820C0B75190F4AB2F0024469537958F
:103860002795011CA395D2F3002071F0220F331F7E
:10387000441FB395DAF30ED00C94BB196130710577
:10388000A0E88A07B94630F49B01AC016627772788
:1038900088279078309621F02083318342835383A8
:1038A00008959F3F31F0915020F487957795679563
:1038B000B795880F911D9695879597F9089597FB71
:1038C000072E16F4009407D077FD09D00E94791CCA
:1038D00007FC05D03EF4909581959F4F0895709513
:1038E00061957F4F0895EE0FFF1F0590F491E02D35
:1038F0000994AA1BBB1B51E107C0AA1FBB1FA61737
:10390000B70710F0A61BB70B881F991F5A95A9F788
:1039100080959095BC01CD0108950F931F93CF938F
:10392000DF938230910510F482E090E0E0912A0369
:10393000F0912B0330E020E0B0E0A0E0309799F464
:103940002115310509F44AC0281B390B24303105F3
:10395000D8F58A819B816115710589F1FB019383FB
:103960008283FE0111C04081518102811381481779
:103970005907E0F04817590799F4109761F012962B
:103980000C93129713961C933296CF01DF91CF912F
:103990001F910F91089500932A0310932B03F4CFE6
:1039A0002115310551F04217530738F0A901DB0109
:1039B0009A01BD01DF01F801C1CFEF01F9CF90936A
:1039C0002B0380932A03CDCFFE01E20FF31F8193D7
:1039D00091932250310939832883D7CF209128032E
:1039E00030912903232B41F42091150130911601C8
:1039F000309329032093280320911301309114015F
:103A00002115310541F42DB73EB740911701509172
:103A10001801241B350BE0912803F0912903E217CC
:103A2000F307A0F42E1B3F0B2817390778F0AC01E1
:103A30004E5F5F4F2417350748F04E0F5F1F5093BE
:103A4000290340932803819391939FCFF0E0E0E016
:103A50009CCFCF93DF930097E9F0FC01329713825C
:103A60001282A0912A03B0912B03ED0130E020E0F7
:103A70001097A1F420813181820F931F2091280398
:103A8000309129032817390709F061C0F093290301
:103A9000E0932803DF91CF910895EA01CE17DF0765
:103AA000E8F54A815B819E0141155105B1F7E901B5
:103AB000FB83EA8349915991C40FD51FEC17FD0789
:103AC00061F4808191810296840F951FE9019983A9
:103AD0008883828193819B838A83F0E0E0E0129661
:103AE0008D919C9113970097B9F52D913C91119769
:103AF000CD010296820F931F209128033091290354
:103B00002817390739F6309751F510922B03109288
:103B10002A03B0932903A0932803BCCFD383C28385
:103B200040815181840F951FC817D90761F44E5FFA
:103B30005F4F88819981480F591F518340838A8143
:103B40009B81938382832115310509F0B0CFF093D7
:103B50002B03E0932A039ECFFD01DC01C0CF13822B
:103B60001282D7CFB0E0A0E0E8EBFDE10C9455194C
:103B70008C01009751F4CB010E948D1C8C01C8016F
:103B8000CDB7DEB7E0E10C947119FC01E60FF71F29
:103B90009C0122503109E217F30708F49DC0D901B6
:103BA000CD91DC911197C617D70798F0C530D10594
:103BB00030F3CE0104978617970708F3C61BD70B7F
:103BC0002297C193D1936D937C93CF010E94291DBD
:103BD000D6CF5B01AC1ABD0A4C018C0E9D1EA09184
:103BE0002A03B0912B03512C412CF12CE12C10977E
:103BF00031F580912803909129038815990509F0E2
:103C00005CC04616570608F058C080911301909189
:103C10001401009741F48DB79EB740911701509160
:103C20001801841B950BE817F90708F055C0F093AD
:103C30002903E0932803F90171836083A0CF8D915C
:103C40009C91119712966C90129713967C901397F3
:103C5000A815B90559F56C0142E0C40ED11CCA146F
:103C6000DB0420F1AC014A195B09DA0112961597C1
:103C700080F06282738251834083D9016D937C937B
:103C8000E114F10471F0D7011396FC93EE931297AF
:103C900076CF22968C0F9D1FF90191838083F301CB
:103CA000EFCFF0932B03E0932A0369CF4816590610
:103CB00008F42C017D01D3019ACFCB010E948D1C09
:103CC0007C01009749F0AE01B8010E946F1EC80147
:103CD0000E94291D870153CF10E000E050CFFB0167
:103CE000DC0102C001900D9241505040D8F7089578
:103CF000FC018191861721F08823D9F7992708952F
:103D00003197CF010895FB01DC018D91019080195D
:103D10000110D9F3990B0895FB01DC0101900D927C
:103D20000020E1F70895FB01DC014150504030F0E4
:103D30008D910190801919F40020B9F7881B990B17
:063D40000895F894FFCF86
:103D460000C18081000000FFFFFFFF00E1000000CE
:103D560000000000002C038000000000006205DE69
:103D660005A005850569EA03021D001400CF01ECD4
:103D7600FAFFFF801A06000500050005000500058C
:103D86000005000000803F0000803F0000803F00EB
:103D9600000000A0048A04C104B6044805C6042431
:103DA60005000000009B06BC0A6E616E00696E6627
:103DB600006F7666005245414400434F4E463A0036
:103DC6000D0A0053415645004F4B3A534156454460
:103DD6000044454255475F4F4E0044454255475FB4
:103DE6004F4646005345543A00544D494E00544DF3
:103DF600415800434D494E00434D415800424D49FC
:103E06004E00424D41580054445A424F54005444C7
:103E16005A544F500043445A424F540043445A5454
:103E26004F500042445A424F540042445A544F5055
:103E360000544352560043435256004243525600E2
:0E3E46004F4B3A534554004C4956453A000044
:00000001FF
